{
    "_format": "hh-sol-artifact-1",
    "contractName": "TodoList",
    "sourceName": "contracts/TodoList.sol",
    "abi": [
        {
            "anonymous": false,
            "inputs": [
                {
                    "indexed": false,
                    "internalType": "uint256",
                    "name": "taskid",
                    "type": "uint256"
                },
                {
                    "indexed": false,
                    "internalType": "address",
                    "name": "from",
                    "type": "address"
                }
            ],
            "name": "TaskAdded",
            "type": "event"
        },
        {
            "anonymous": false,
            "inputs": [
                {
                    "indexed": false,
                    "internalType": "uint256",
                    "name": "taskid",
                    "type": "uint256"
                }
            ],
            "name": "TaskDeleted",
            "type": "event"
        },
        {
            "inputs": [
                {
                    "internalType": "string",
                    "name": "tasktext",
                    "type": "string"
                },
                {
                    "internalType": "bool",
                    "name": "isDeleted",
                    "type": "bool"
                }
            ],
            "name": "AddNewTask",
            "outputs": [],
            "stateMutability": "nonpayable",
            "type": "function"
        },
        {
            "inputs": [
                {
                    "internalType": "uint256",
                    "name": "taskid",
                    "type": "uint256"
                },
                {
                    "internalType": "bool",
                    "name": "isDeleted",
                    "type": "bool"
                }
            ],
            "name": "DeleteTasks",
            "outputs": [],
            "stateMutability": "nonpayable",
            "type": "function"
        },
        {
            "inputs": [],
            "name": "getTasks",
            "outputs": [
                {
                    "components": [
                        {
                            "internalType": "uint256",
                            "name": "id",
                            "type": "uint256"
                        },
                        {
                            "internalType": "string",
                            "name": "tasktext",
                            "type": "string"
                        },
                        {
                            "internalType": "bool",
                            "name": "isDeleted",
                            "type": "bool"
                        }
                    ],
                    "internalType": "struct TodoList.Task[]",
                    "name": "",
                    "type": "tuple[]"
                }
            ],
            "stateMutability": "view",
            "type": "function"
        }
    ],
    "bytecode": "0x608060405234801561001057600080fd5b50610d4b806100206000396000f3fe608060405234801561001057600080fd5b50600436106100415760003560e01c806304a87e3814610046578063a62d80f914610064578063ec13208714610080575b600080fd5b61004e61009c565b60405161005b9190610a02565b60405180910390f35b61007e60048036038101906100799190610824565b61049c565b005b61009a60048036038101906100959190610878565b6105c6565b005b60606000808054905067ffffffffffffffff8111156100e4577f4e487b7100000000000000000000000000000000000000000000000000000000600052604160045260246000fd5b60405190808252806020026020018201604052801561011d57816020015b61010a6106cc565b8152602001906001900390816101025790505b5090506000805b600080549050811015610370573373ffffffffffffffffffffffffffffffffffffffff166001600083815260200190815260200160002060009054906101000a900473ffffffffffffffffffffffffffffffffffffffff1673ffffffffffffffffffffffffffffffffffffffff161480156101fb575060001515600082815481106101d8577f4e487b7100000000000000000000000000000000000000000000000000000000600052603260045260246000fd5b906000526020600020906003020160020160009054906101000a900460ff161515145b1561035d576000818154811061023a577f4e487b7100000000000000000000000000000000000000000000000000000000600052603260045260246000fd5b90600052602060002090600302016040518060600160405290816000820154815260200160018201805461026d90610b9d565b80601f016020809104026020016040519081016040528092919081815260200182805461029990610b9d565b80156102e65780601f106102bb576101008083540402835291602001916102e6565b820191906000526020600020905b8154815290600101906020018083116102c957829003601f168201915b505050505081526020016002820160009054906101000a900460ff161515151581525050838381518110610343577f4e487b7100000000000000000000000000000000000000000000000000000000600052603260045260246000fd5b6020026020010181905250818061035990610c00565b9250505b808061036890610c00565b915050610124565b5060008167ffffffffffffffff8111156103b3577f4e487b7100000000000000000000000000000000000000000000000000000000600052604160045260246000fd5b6040519080825280602002602001820160405280156103ec57816020015b6103d96106cc565b8152602001906001900390816103d15790505b50905060005b8281101561049257838181518110610433577f4e487b7100000000000000000000000000000000000000000000000000000000600052603260045260246000fd5b6020026020010151828281518110610474577f4e487b7100000000000000000000000000000000000000000000000000000000600052603260045260246000fd5b6020026020010181905250808061048a90610c00565b9150506103f2565b5080935050505090565b6000808054905090506000604051806060016040528083815260200185815260200184151581525090806001815401808255809150506001900390600052602060002090600302016000909190919091506000820151816000015560208201518160010190805190602001906105139291906106ef565b5060408201518160020160006101000a81548160ff0219169083151502179055505050336001600083815260200190815260200160002060006101000a81548173ffffffffffffffffffffffffffffffffffffffff021916908373ffffffffffffffffffffffffffffffffffffffff1602179055507f54d6347622c0e9d781f71ed0051d6fdf61a13dc31d3d88157a01ff063a026da581336040516105b9929190610a3f565b60405180910390a1505050565b3373ffffffffffffffffffffffffffffffffffffffff166001600084815260200190815260200160002060009054906101000a900473ffffffffffffffffffffffffffffffffffffffff1673ffffffffffffffffffffffffffffffffffffffff1614156106c8578060008381548110610668577f4e487b7100000000000000000000000000000000000000000000000000000000600052603260045260246000fd5b906000526020600020906003020160020160006101000a81548160ff0219169083151502179055507fd078b251d950cc55c44340be1db732337ef4939a76e1367ee271ad2cb19c46af826040516106bf9190610a24565b60405180910390a15b5050565b604051806060016040528060008152602001606081526020016000151581525090565b8280546106fb90610b9d565b90600052602060002090601f01602090048101928261071d5760008555610764565b82601f1061073657805160ff1916838001178555610764565b82800160010185558215610764579182015b82811115610763578251825591602001919060010190610748565b5b5090506107719190610775565b5090565b5b8082111561078e576000816000905550600101610776565b5090565b60006107a56107a084610a8d565b610a68565b9050828152602081018484840111156107bd57600080fd5b6107c8848285610b5b565b509392505050565b6000813590506107df81610ce7565b92915050565b600082601f8301126107f657600080fd5b8135610806848260208601610792565b91505092915050565b60008135905061081e81610cfe565b92915050565b6000806040838503121561083757600080fd5b600083013567ffffffffffffffff81111561085157600080fd5b61085d858286016107e5565b925050602061086e858286016107d0565b9150509250929050565b6000806040838503121561088b57600080fd5b60006108998582860161080f565b92505060206108aa858286016107d0565b9150509250929050565b60006108c08383610994565b905092915050565b6108d181610b13565b82525050565b60006108e282610ace565b6108ec8185610af1565b9350836020820285016108fe85610abe565b8060005b8581101561093a578484038952815161091b85826108b4565b945061092683610ae4565b925060208a01995050600181019050610902565b50829750879550505050505092915050565b61095581610b25565b82525050565b600061096682610ad9565b6109708185610b02565b9350610980818560208601610b6a565b61098981610cd6565b840191505092915050565b60006060830160008301516109ac60008601826109e4565b50602083015184820360208601526109c4828261095b565b91505060408301516109d9604086018261094c565b508091505092915050565b6109ed81610b51565b82525050565b6109fc81610b51565b82525050565b60006020820190508181036000830152610a1c81846108d7565b905092915050565b6000602082019050610a3960008301846109f3565b92915050565b6000604082019050610a5460008301856109f3565b610a6160208301846108c8565b9392505050565b6000610a72610a83565b9050610a7e8282610bcf565b919050565b6000604051905090565b600067ffffffffffffffff821115610aa857610aa7610ca7565b5b610ab182610cd6565b9050602081019050919050565b6000819050602082019050919050565b600081519050919050565b600081519050919050565b6000602082019050919050565b600082825260208201905092915050565b600082825260208201905092915050565b6000610b1e82610b31565b9050919050565b60008115159050919050565b600073ffffffffffffffffffffffffffffffffffffffff82169050919050565b6000819050919050565b82818337600083830152505050565b60005b83811015610b88578082015181840152602081019050610b6d565b83811115610b97576000848401525b50505050565b60006002820490506001821680610bb557607f821691505b60208210811415610bc957610bc8610c78565b5b50919050565b610bd882610cd6565b810181811067ffffffffffffffff82111715610bf757610bf6610ca7565b5b80604052505050565b6000610c0b82610b51565b91507fffffffffffffffffffffffffffffffffffffffffffffffffffffffffffffffff821415610c3e57610c3d610c49565b5b600182019050919050565b7f4e487b7100000000000000000000000000000000000000000000000000000000600052601160045260246000fd5b7f4e487b7100000000000000000000000000000000000000000000000000000000600052602260045260246000fd5b7f4e487b7100000000000000000000000000000000000000000000000000000000600052604160045260246000fd5b6000601f19601f8301169050919050565b610cf081610b25565b8114610cfb57600080fd5b50565b610d0781610b51565b8114610d1257600080fd5b5056fea2646970667358221220c932269e8facbed4d1de03e90b5a036d80c8dff0d390ddd5c22145553a84169464736f6c63430008040033",
    "linkReferences": {},
    "deployedLinkReferences": {}
}